{
	"data": {
		"bytecode": {
			"linkReferences": {},
			"object": "6080604052348015600e575f80fd5b50610ba38061001c5f395ff3fe608060405234801561000f575f80fd5b506004361061004a575f3560e01c8063163f75221461004e57806325f3d2201461007e578063a87430ba1461009a578063f2c298be146100cc575b5f80fd5b610068600480360381019061006391906104bc565b6100e8565b6040516100759190610501565b60405180910390f35b610098600480360381019061009391906104bc565b61013f565b005b6100b460048036038101906100af91906104bc565b610223565b6040516100c3939291906105b1565b60405180910390f35b6100e660048036038101906100e19190610719565b6102ed565b005b5f805f808473ffffffffffffffffffffffffffffffffffffffff1673ffffffffffffffffffffffffffffffffffffffff1681526020019081526020015f2060010180546101349061078d565b905014159050919050565b5f805f8373ffffffffffffffffffffffffffffffffffffffff1673ffffffffffffffffffffffffffffffffffffffff1681526020019081526020015f20600101805461018a9061078d565b9050036101cc576040517f08c379a00000000000000000000000000000000000000000000000000000000081526004016101c390610807565b60405180910390fd5b5f808273ffffffffffffffffffffffffffffffffffffffff1673ffffffffffffffffffffffffffffffffffffffff1681526020019081526020015f206002015f81548092919061021b90610852565b919050555050565b5f602052805f5260405f205f91509050805f015f9054906101000a900473ffffffffffffffffffffffffffffffffffffffff16908060010180546102669061078d565b80601f01602080910402602001604051908101604052809291908181526020018280546102929061078d565b80156102dd5780601f106102b4576101008083540402835291602001916102dd565b820191905f5260205f20905b8154815290600101906020018083116102c057829003601f168201915b5050505050908060020154905083565b5f805f3373ffffffffffffffffffffffffffffffffffffffff1673ffffffffffffffffffffffffffffffffffffffff1681526020019081526020015f2060010180546103389061078d565b90501461037a576040517f08c379a0000000000000000000000000000000000000000000000000000000008152600401610371906108e3565b60405180910390fd5b60405180606001604052803373ffffffffffffffffffffffffffffffffffffffff1681526020018281526020015f8152505f803373ffffffffffffffffffffffffffffffffffffffff1673ffffffffffffffffffffffffffffffffffffffff1681526020019081526020015f205f820151815f015f6101000a81548173ffffffffffffffffffffffffffffffffffffffff021916908373ffffffffffffffffffffffffffffffffffffffff16021790555060208201518160010190816104409190610a9e565b506040820151816002015590505050565b5f604051905090565b5f80fd5b5f80fd5b5f73ffffffffffffffffffffffffffffffffffffffff82169050919050565b5f61048b82610462565b9050919050565b61049b81610481565b81146104a5575f80fd5b50565b5f813590506104b681610492565b92915050565b5f602082840312156104d1576104d061045a565b5b5f6104de848285016104a8565b91505092915050565b5f8115159050919050565b6104fb816104e7565b82525050565b5f6020820190506105145f8301846104f2565b92915050565b61052381610481565b82525050565b5f81519050919050565b5f82825260208201905092915050565b8281835e5f83830152505050565b5f601f19601f8301169050919050565b5f61056b82610529565b6105758185610533565b9350610585818560208601610543565b61058e81610551565b840191505092915050565b5f819050919050565b6105ab81610599565b82525050565b5f6060820190506105c45f83018661051a565b81810360208301526105d68185610561565b90506105e560408301846105a2565b949350505050565b5f80fd5b5f80fd5b7f4e487b71000000000000000000000000000000000000000000000000000000005f52604160045260245ffd5b61062b82610551565b810181811067ffffffffffffffff8211171561064a576106496105f5565b5b80604052505050565b5f61065c610451565b90506106688282610622565b919050565b5f67ffffffffffffffff821115610687576106866105f5565b5b61069082610551565b9050602081019050919050565b828183375f83830152505050565b5f6106bd6106b88461066d565b610653565b9050828152602081018484840111156106d9576106d86105f1565b5b6106e484828561069d565b509392505050565b5f82601f830112610700576106ff6105ed565b5b81356107108482602086016106ab565b91505092915050565b5f6020828403121561072e5761072d61045a565b5b5f82013567ffffffffffffffff81111561074b5761074a61045e565b5b610757848285016106ec565b91505092915050565b7f4e487b71000000000000000000000000000000000000000000000000000000005f52602260045260245ffd5b5f60028204905060018216806107a457607f821691505b6020821081036107b7576107b6610760565b5b50919050565b7f506c6561736520526567697374657220666972737400000000000000000000005f82015250565b5f6107f1601583610533565b91506107fc826107bd565b602082019050919050565b5f6020820190508181035f83015261081e816107e5565b9050919050565b7f4e487b71000000000000000000000000000000000000000000000000000000005f52601160045260245ffd5b5f61085c82610599565b91507fffffffffffffffffffffffffffffffffffffffffffffffffffffffffffffffff820361088e5761088d610825565b5b600182019050919050565b7f5573657220616c726561647920726567697374657265640000000000000000005f82015250565b5f6108cd601783610533565b91506108d882610899565b602082019050919050565b5f6020820190508181035f8301526108fa816108c1565b9050919050565b5f819050815f5260205f209050919050565b5f6020601f8301049050919050565b5f82821b905092915050565b5f6008830261095d7fffffffffffffffffffffffffffffffffffffffffffffffffffffffffffffffff82610922565b6109678683610922565b95508019841693508086168417925050509392505050565b5f819050919050565b5f6109a261099d61099884610599565b61097f565b610599565b9050919050565b5f819050919050565b6109bb83610988565b6109cf6109c7826109a9565b84845461092e565b825550505050565b5f90565b6109e36109d7565b6109ee8184846109b2565b505050565b5b81811015610a1157610a065f826109db565b6001810190506109f4565b5050565b601f821115610a5657610a2781610901565b610a3084610913565b81016020851015610a3f578190505b610a53610a4b85610913565b8301826109f3565b50505b505050565b5f82821c905092915050565b5f610a765f1984600802610a5b565b1980831691505092915050565b5f610a8e8383610a67565b9150826002028217905092915050565b610aa782610529565b67ffffffffffffffff811115610ac057610abf6105f5565b5b610aca825461078d565b610ad5828285610a15565b5f60209050601f831160018114610b06575f8415610af4578287015190505b610afe8582610a83565b865550610b65565b601f198416610b1486610901565b5f5b82811015610b3b57848901518255600182019150602085019450602081019050610b16565b86831015610b585784890151610b54601f891682610a67565b8355505b6001600288020188555050505b50505050505056fea264697066735822122092fe54661bb78230527ef81db9f11c7d568120c9f708059055bb09a9e77d8a8e64736f6c634300081a0033",
			"opcodes": "PUSH1 0x80 PUSH1 0x40 MSTORE CALLVALUE DUP1 ISZERO PUSH1 0xE JUMPI PUSH0 DUP1 REVERT JUMPDEST POP PUSH2 0xBA3 DUP1 PUSH2 0x1C PUSH0 CODECOPY PUSH0 RETURN INVALID PUSH1 0x80 PUSH1 0x40 MSTORE CALLVALUE DUP1 ISZERO PUSH2 0xF JUMPI PUSH0 DUP1 REVERT JUMPDEST POP PUSH1 0x4 CALLDATASIZE LT PUSH2 0x4A JUMPI PUSH0 CALLDATALOAD PUSH1 0xE0 SHR DUP1 PUSH4 0x163F7522 EQ PUSH2 0x4E JUMPI DUP1 PUSH4 0x25F3D220 EQ PUSH2 0x7E JUMPI DUP1 PUSH4 0xA87430BA EQ PUSH2 0x9A JUMPI DUP1 PUSH4 0xF2C298BE EQ PUSH2 0xCC JUMPI JUMPDEST PUSH0 DUP1 REVERT JUMPDEST PUSH2 0x68 PUSH1 0x4 DUP1 CALLDATASIZE SUB DUP2 ADD SWAP1 PUSH2 0x63 SWAP2 SWAP1 PUSH2 0x4BC JUMP JUMPDEST PUSH2 0xE8 JUMP JUMPDEST PUSH1 0x40 MLOAD PUSH2 0x75 SWAP2 SWAP1 PUSH2 0x501 JUMP JUMPDEST PUSH1 0x40 MLOAD DUP1 SWAP2 SUB SWAP1 RETURN JUMPDEST PUSH2 0x98 PUSH1 0x4 DUP1 CALLDATASIZE SUB DUP2 ADD SWAP1 PUSH2 0x93 SWAP2 SWAP1 PUSH2 0x4BC JUMP JUMPDEST PUSH2 0x13F JUMP JUMPDEST STOP JUMPDEST PUSH2 0xB4 PUSH1 0x4 DUP1 CALLDATASIZE SUB DUP2 ADD SWAP1 PUSH2 0xAF SWAP2 SWAP1 PUSH2 0x4BC JUMP JUMPDEST PUSH2 0x223 JUMP JUMPDEST PUSH1 0x40 MLOAD PUSH2 0xC3 SWAP4 SWAP3 SWAP2 SWAP1 PUSH2 0x5B1 JUMP JUMPDEST PUSH1 0x40 MLOAD DUP1 SWAP2 SUB SWAP1 RETURN JUMPDEST PUSH2 0xE6 PUSH1 0x4 DUP1 CALLDATASIZE SUB DUP2 ADD SWAP1 PUSH2 0xE1 SWAP2 SWAP1 PUSH2 0x719 JUMP JUMPDEST PUSH2 0x2ED JUMP JUMPDEST STOP JUMPDEST PUSH0 DUP1 PUSH0 DUP1 DUP5 PUSH20 0xFFFFFFFFFFFFFFFFFFFFFFFFFFFFFFFFFFFFFFFF AND PUSH20 0xFFFFFFFFFFFFFFFFFFFFFFFFFFFFFFFFFFFFFFFF AND DUP2 MSTORE PUSH1 0x20 ADD SWAP1 DUP2 MSTORE PUSH1 0x20 ADD PUSH0 KECCAK256 PUSH1 0x1 ADD DUP1 SLOAD PUSH2 0x134 SWAP1 PUSH2 0x78D JUMP JUMPDEST SWAP1 POP EQ ISZERO SWAP1 POP SWAP2 SWAP1 POP JUMP JUMPDEST PUSH0 DUP1 PUSH0 DUP4 PUSH20 0xFFFFFFFFFFFFFFFFFFFFFFFFFFFFFFFFFFFFFFFF AND PUSH20 0xFFFFFFFFFFFFFFFFFFFFFFFFFFFFFFFFFFFFFFFF AND DUP2 MSTORE PUSH1 0x20 ADD SWAP1 DUP2 MSTORE PUSH1 0x20 ADD PUSH0 KECCAK256 PUSH1 0x1 ADD DUP1 SLOAD PUSH2 0x18A SWAP1 PUSH2 0x78D JUMP JUMPDEST SWAP1 POP SUB PUSH2 0x1CC JUMPI PUSH1 0x40 MLOAD PUSH32 0x8C379A000000000000000000000000000000000000000000000000000000000 DUP2 MSTORE PUSH1 0x4 ADD PUSH2 0x1C3 SWAP1 PUSH2 0x807 JUMP JUMPDEST PUSH1 0x40 MLOAD DUP1 SWAP2 SUB SWAP1 REVERT JUMPDEST PUSH0 DUP1 DUP3 PUSH20 0xFFFFFFFFFFFFFFFFFFFFFFFFFFFFFFFFFFFFFFFF AND PUSH20 0xFFFFFFFFFFFFFFFFFFFFFFFFFFFFFFFFFFFFFFFF AND DUP2 MSTORE PUSH1 0x20 ADD SWAP1 DUP2 MSTORE PUSH1 0x20 ADD PUSH0 KECCAK256 PUSH1 0x2 ADD PUSH0 DUP2 SLOAD DUP1 SWAP3 SWAP2 SWAP1 PUSH2 0x21B SWAP1 PUSH2 0x852 JUMP JUMPDEST SWAP2 SWAP1 POP SSTORE POP POP JUMP JUMPDEST PUSH0 PUSH1 0x20 MSTORE DUP1 PUSH0 MSTORE PUSH1 0x40 PUSH0 KECCAK256 PUSH0 SWAP2 POP SWAP1 POP DUP1 PUSH0 ADD PUSH0 SWAP1 SLOAD SWAP1 PUSH2 0x100 EXP SWAP1 DIV PUSH20 0xFFFFFFFFFFFFFFFFFFFFFFFFFFFFFFFFFFFFFFFF AND SWAP1 DUP1 PUSH1 0x1 ADD DUP1 SLOAD PUSH2 0x266 SWAP1 PUSH2 0x78D JUMP JUMPDEST DUP1 PUSH1 0x1F ADD PUSH1 0x20 DUP1 SWAP2 DIV MUL PUSH1 0x20 ADD PUSH1 0x40 MLOAD SWAP1 DUP2 ADD PUSH1 0x40 MSTORE DUP1 SWAP3 SWAP2 SWAP1 DUP2 DUP2 MSTORE PUSH1 0x20 ADD DUP3 DUP1 SLOAD PUSH2 0x292 SWAP1 PUSH2 0x78D JUMP JUMPDEST DUP1 ISZERO PUSH2 0x2DD JUMPI DUP1 PUSH1 0x1F LT PUSH2 0x2B4 JUMPI PUSH2 0x100 DUP1 DUP4 SLOAD DIV MUL DUP4 MSTORE SWAP2 PUSH1 0x20 ADD SWAP2 PUSH2 0x2DD JUMP JUMPDEST DUP3 ADD SWAP2 SWAP1 PUSH0 MSTORE PUSH1 0x20 PUSH0 KECCAK256 SWAP1 JUMPDEST DUP2 SLOAD DUP2 MSTORE SWAP1 PUSH1 0x1 ADD SWAP1 PUSH1 0x20 ADD DUP1 DUP4 GT PUSH2 0x2C0 JUMPI DUP3 SWAP1 SUB PUSH1 0x1F AND DUP3 ADD SWAP2 JUMPDEST POP POP POP POP POP SWAP1 DUP1 PUSH1 0x2 ADD SLOAD SWAP1 POP DUP4 JUMP JUMPDEST PUSH0 DUP1 PUSH0 CALLER PUSH20 0xFFFFFFFFFFFFFFFFFFFFFFFFFFFFFFFFFFFFFFFF AND PUSH20 0xFFFFFFFFFFFFFFFFFFFFFFFFFFFFFFFFFFFFFFFF AND DUP2 MSTORE PUSH1 0x20 ADD SWAP1 DUP2 MSTORE PUSH1 0x20 ADD PUSH0 KECCAK256 PUSH1 0x1 ADD DUP1 SLOAD PUSH2 0x338 SWAP1 PUSH2 0x78D JUMP JUMPDEST SWAP1 POP EQ PUSH2 0x37A JUMPI PUSH1 0x40 MLOAD PUSH32 0x8C379A000000000000000000000000000000000000000000000000000000000 DUP2 MSTORE PUSH1 0x4 ADD PUSH2 0x371 SWAP1 PUSH2 0x8E3 JUMP JUMPDEST PUSH1 0x40 MLOAD DUP1 SWAP2 SUB SWAP1 REVERT JUMPDEST PUSH1 0x40 MLOAD DUP1 PUSH1 0x60 ADD PUSH1 0x40 MSTORE DUP1 CALLER PUSH20 0xFFFFFFFFFFFFFFFFFFFFFFFFFFFFFFFFFFFFFFFF AND DUP2 MSTORE PUSH1 0x20 ADD DUP3 DUP2 MSTORE PUSH1 0x20 ADD PUSH0 DUP2 MSTORE POP PUSH0 DUP1 CALLER PUSH20 0xFFFFFFFFFFFFFFFFFFFFFFFFFFFFFFFFFFFFFFFF AND PUSH20 0xFFFFFFFFFFFFFFFFFFFFFFFFFFFFFFFFFFFFFFFF AND DUP2 MSTORE PUSH1 0x20 ADD SWAP1 DUP2 MSTORE PUSH1 0x20 ADD PUSH0 KECCAK256 PUSH0 DUP3 ADD MLOAD DUP2 PUSH0 ADD PUSH0 PUSH2 0x100 EXP DUP2 SLOAD DUP2 PUSH20 0xFFFFFFFFFFFFFFFFFFFFFFFFFFFFFFFFFFFFFFFF MUL NOT AND SWAP1 DUP4 PUSH20 0xFFFFFFFFFFFFFFFFFFFFFFFFFFFFFFFFFFFFFFFF AND MUL OR SWAP1 SSTORE POP PUSH1 0x20 DUP3 ADD MLOAD DUP2 PUSH1 0x1 ADD SWAP1 DUP2 PUSH2 0x440 SWAP2 SWAP1 PUSH2 0xA9E JUMP JUMPDEST POP PUSH1 0x40 DUP3 ADD MLOAD DUP2 PUSH1 0x2 ADD SSTORE SWAP1 POP POP POP JUMP JUMPDEST PUSH0 PUSH1 0x40 MLOAD SWAP1 POP SWAP1 JUMP JUMPDEST PUSH0 DUP1 REVERT JUMPDEST PUSH0 DUP1 REVERT JUMPDEST PUSH0 PUSH20 0xFFFFFFFFFFFFFFFFFFFFFFFFFFFFFFFFFFFFFFFF DUP3 AND SWAP1 POP SWAP2 SWAP1 POP JUMP JUMPDEST PUSH0 PUSH2 0x48B DUP3 PUSH2 0x462 JUMP JUMPDEST SWAP1 POP SWAP2 SWAP1 POP JUMP JUMPDEST PUSH2 0x49B DUP2 PUSH2 0x481 JUMP JUMPDEST DUP2 EQ PUSH2 0x4A5 JUMPI PUSH0 DUP1 REVERT JUMPDEST POP JUMP JUMPDEST PUSH0 DUP2 CALLDATALOAD SWAP1 POP PUSH2 0x4B6 DUP2 PUSH2 0x492 JUMP JUMPDEST SWAP3 SWAP2 POP POP JUMP JUMPDEST PUSH0 PUSH1 0x20 DUP3 DUP5 SUB SLT ISZERO PUSH2 0x4D1 JUMPI PUSH2 0x4D0 PUSH2 0x45A JUMP JUMPDEST JUMPDEST PUSH0 PUSH2 0x4DE DUP5 DUP3 DUP6 ADD PUSH2 0x4A8 JUMP JUMPDEST SWAP2 POP POP SWAP3 SWAP2 POP POP JUMP JUMPDEST PUSH0 DUP2 ISZERO ISZERO SWAP1 POP SWAP2 SWAP1 POP JUMP JUMPDEST PUSH2 0x4FB DUP2 PUSH2 0x4E7 JUMP JUMPDEST DUP3 MSTORE POP POP JUMP JUMPDEST PUSH0 PUSH1 0x20 DUP3 ADD SWAP1 POP PUSH2 0x514 PUSH0 DUP4 ADD DUP5 PUSH2 0x4F2 JUMP JUMPDEST SWAP3 SWAP2 POP POP JUMP JUMPDEST PUSH2 0x523 DUP2 PUSH2 0x481 JUMP JUMPDEST DUP3 MSTORE POP POP JUMP JUMPDEST PUSH0 DUP2 MLOAD SWAP1 POP SWAP2 SWAP1 POP JUMP JUMPDEST PUSH0 DUP3 DUP3 MSTORE PUSH1 0x20 DUP3 ADD SWAP1 POP SWAP3 SWAP2 POP POP JUMP JUMPDEST DUP3 DUP2 DUP4 MCOPY PUSH0 DUP4 DUP4 ADD MSTORE POP POP POP JUMP JUMPDEST PUSH0 PUSH1 0x1F NOT PUSH1 0x1F DUP4 ADD AND SWAP1 POP SWAP2 SWAP1 POP JUMP JUMPDEST PUSH0 PUSH2 0x56B DUP3 PUSH2 0x529 JUMP JUMPDEST PUSH2 0x575 DUP2 DUP6 PUSH2 0x533 JUMP JUMPDEST SWAP4 POP PUSH2 0x585 DUP2 DUP6 PUSH1 0x20 DUP7 ADD PUSH2 0x543 JUMP JUMPDEST PUSH2 0x58E DUP2 PUSH2 0x551 JUMP JUMPDEST DUP5 ADD SWAP2 POP POP SWAP3 SWAP2 POP POP JUMP JUMPDEST PUSH0 DUP2 SWAP1 POP SWAP2 SWAP1 POP JUMP JUMPDEST PUSH2 0x5AB DUP2 PUSH2 0x599 JUMP JUMPDEST DUP3 MSTORE POP POP JUMP JUMPDEST PUSH0 PUSH1 0x60 DUP3 ADD SWAP1 POP PUSH2 0x5C4 PUSH0 DUP4 ADD DUP7 PUSH2 0x51A JUMP JUMPDEST DUP2 DUP2 SUB PUSH1 0x20 DUP4 ADD MSTORE PUSH2 0x5D6 DUP2 DUP6 PUSH2 0x561 JUMP JUMPDEST SWAP1 POP PUSH2 0x5E5 PUSH1 0x40 DUP4 ADD DUP5 PUSH2 0x5A2 JUMP JUMPDEST SWAP5 SWAP4 POP POP POP POP JUMP JUMPDEST PUSH0 DUP1 REVERT JUMPDEST PUSH0 DUP1 REVERT JUMPDEST PUSH32 0x4E487B7100000000000000000000000000000000000000000000000000000000 PUSH0 MSTORE PUSH1 0x41 PUSH1 0x4 MSTORE PUSH1 0x24 PUSH0 REVERT JUMPDEST PUSH2 0x62B DUP3 PUSH2 0x551 JUMP JUMPDEST DUP2 ADD DUP2 DUP2 LT PUSH8 0xFFFFFFFFFFFFFFFF DUP3 GT OR ISZERO PUSH2 0x64A JUMPI PUSH2 0x649 PUSH2 0x5F5 JUMP JUMPDEST JUMPDEST DUP1 PUSH1 0x40 MSTORE POP POP POP JUMP JUMPDEST PUSH0 PUSH2 0x65C PUSH2 0x451 JUMP JUMPDEST SWAP1 POP PUSH2 0x668 DUP3 DUP3 PUSH2 0x622 JUMP JUMPDEST SWAP2 SWAP1 POP JUMP JUMPDEST PUSH0 PUSH8 0xFFFFFFFFFFFFFFFF DUP3 GT ISZERO PUSH2 0x687 JUMPI PUSH2 0x686 PUSH2 0x5F5 JUMP JUMPDEST JUMPDEST PUSH2 0x690 DUP3 PUSH2 0x551 JUMP JUMPDEST SWAP1 POP PUSH1 0x20 DUP2 ADD SWAP1 POP SWAP2 SWAP1 POP JUMP JUMPDEST DUP3 DUP2 DUP4 CALLDATACOPY PUSH0 DUP4 DUP4 ADD MSTORE POP POP POP JUMP JUMPDEST PUSH0 PUSH2 0x6BD PUSH2 0x6B8 DUP5 PUSH2 0x66D JUMP JUMPDEST PUSH2 0x653 JUMP JUMPDEST SWAP1 POP DUP3 DUP2 MSTORE PUSH1 0x20 DUP2 ADD DUP5 DUP5 DUP5 ADD GT ISZERO PUSH2 0x6D9 JUMPI PUSH2 0x6D8 PUSH2 0x5F1 JUMP JUMPDEST JUMPDEST PUSH2 0x6E4 DUP5 DUP3 DUP6 PUSH2 0x69D JUMP JUMPDEST POP SWAP4 SWAP3 POP POP POP JUMP JUMPDEST PUSH0 DUP3 PUSH1 0x1F DUP4 ADD SLT PUSH2 0x700 JUMPI PUSH2 0x6FF PUSH2 0x5ED JUMP JUMPDEST JUMPDEST DUP2 CALLDATALOAD PUSH2 0x710 DUP5 DUP3 PUSH1 0x20 DUP7 ADD PUSH2 0x6AB JUMP JUMPDEST SWAP2 POP POP SWAP3 SWAP2 POP POP JUMP JUMPDEST PUSH0 PUSH1 0x20 DUP3 DUP5 SUB SLT ISZERO PUSH2 0x72E JUMPI PUSH2 0x72D PUSH2 0x45A JUMP JUMPDEST JUMPDEST PUSH0 DUP3 ADD CALLDATALOAD PUSH8 0xFFFFFFFFFFFFFFFF DUP2 GT ISZERO PUSH2 0x74B JUMPI PUSH2 0x74A PUSH2 0x45E JUMP JUMPDEST JUMPDEST PUSH2 0x757 DUP5 DUP3 DUP6 ADD PUSH2 0x6EC JUMP JUMPDEST SWAP2 POP POP SWAP3 SWAP2 POP POP JUMP JUMPDEST PUSH32 0x4E487B7100000000000000000000000000000000000000000000000000000000 PUSH0 MSTORE PUSH1 0x22 PUSH1 0x4 MSTORE PUSH1 0x24 PUSH0 REVERT JUMPDEST PUSH0 PUSH1 0x2 DUP3 DIV SWAP1 POP PUSH1 0x1 DUP3 AND DUP1 PUSH2 0x7A4 JUMPI PUSH1 0x7F DUP3 AND SWAP2 POP JUMPDEST PUSH1 0x20 DUP3 LT DUP2 SUB PUSH2 0x7B7 JUMPI PUSH2 0x7B6 PUSH2 0x760 JUMP JUMPDEST JUMPDEST POP SWAP2 SWAP1 POP JUMP JUMPDEST PUSH32 0x506C656173652052656769737465722066697273740000000000000000000000 PUSH0 DUP3 ADD MSTORE POP JUMP JUMPDEST PUSH0 PUSH2 0x7F1 PUSH1 0x15 DUP4 PUSH2 0x533 JUMP JUMPDEST SWAP2 POP PUSH2 0x7FC DUP3 PUSH2 0x7BD JUMP JUMPDEST PUSH1 0x20 DUP3 ADD SWAP1 POP SWAP2 SWAP1 POP JUMP JUMPDEST PUSH0 PUSH1 0x20 DUP3 ADD SWAP1 POP DUP2 DUP2 SUB PUSH0 DUP4 ADD MSTORE PUSH2 0x81E DUP2 PUSH2 0x7E5 JUMP JUMPDEST SWAP1 POP SWAP2 SWAP1 POP JUMP JUMPDEST PUSH32 0x4E487B7100000000000000000000000000000000000000000000000000000000 PUSH0 MSTORE PUSH1 0x11 PUSH1 0x4 MSTORE PUSH1 0x24 PUSH0 REVERT JUMPDEST PUSH0 PUSH2 0x85C DUP3 PUSH2 0x599 JUMP JUMPDEST SWAP2 POP PUSH32 0xFFFFFFFFFFFFFFFFFFFFFFFFFFFFFFFFFFFFFFFFFFFFFFFFFFFFFFFFFFFFFFFF DUP3 SUB PUSH2 0x88E JUMPI PUSH2 0x88D PUSH2 0x825 JUMP JUMPDEST JUMPDEST PUSH1 0x1 DUP3 ADD SWAP1 POP SWAP2 SWAP1 POP JUMP JUMPDEST PUSH32 0x5573657220616C72656164792072656769737465726564000000000000000000 PUSH0 DUP3 ADD MSTORE POP JUMP JUMPDEST PUSH0 PUSH2 0x8CD PUSH1 0x17 DUP4 PUSH2 0x533 JUMP JUMPDEST SWAP2 POP PUSH2 0x8D8 DUP3 PUSH2 0x899 JUMP JUMPDEST PUSH1 0x20 DUP3 ADD SWAP1 POP SWAP2 SWAP1 POP JUMP JUMPDEST PUSH0 PUSH1 0x20 DUP3 ADD SWAP1 POP DUP2 DUP2 SUB PUSH0 DUP4 ADD MSTORE PUSH2 0x8FA DUP2 PUSH2 0x8C1 JUMP JUMPDEST SWAP1 POP SWAP2 SWAP1 POP JUMP JUMPDEST PUSH0 DUP2 SWAP1 POP DUP2 PUSH0 MSTORE PUSH1 0x20 PUSH0 KECCAK256 SWAP1 POP SWAP2 SWAP1 POP JUMP JUMPDEST PUSH0 PUSH1 0x20 PUSH1 0x1F DUP4 ADD DIV SWAP1 POP SWAP2 SWAP1 POP JUMP JUMPDEST PUSH0 DUP3 DUP3 SHL SWAP1 POP SWAP3 SWAP2 POP POP JUMP JUMPDEST PUSH0 PUSH1 0x8 DUP4 MUL PUSH2 0x95D PUSH32 0xFFFFFFFFFFFFFFFFFFFFFFFFFFFFFFFFFFFFFFFFFFFFFFFFFFFFFFFFFFFFFFFF DUP3 PUSH2 0x922 JUMP JUMPDEST PUSH2 0x967 DUP7 DUP4 PUSH2 0x922 JUMP JUMPDEST SWAP6 POP DUP1 NOT DUP5 AND SWAP4 POP DUP1 DUP7 AND DUP5 OR SWAP3 POP POP POP SWAP4 SWAP3 POP POP POP JUMP JUMPDEST PUSH0 DUP2 SWAP1 POP SWAP2 SWAP1 POP JUMP JUMPDEST PUSH0 PUSH2 0x9A2 PUSH2 0x99D PUSH2 0x998 DUP5 PUSH2 0x599 JUMP JUMPDEST PUSH2 0x97F JUMP JUMPDEST PUSH2 0x599 JUMP JUMPDEST SWAP1 POP SWAP2 SWAP1 POP JUMP JUMPDEST PUSH0 DUP2 SWAP1 POP SWAP2 SWAP1 POP JUMP JUMPDEST PUSH2 0x9BB DUP4 PUSH2 0x988 JUMP JUMPDEST PUSH2 0x9CF PUSH2 0x9C7 DUP3 PUSH2 0x9A9 JUMP JUMPDEST DUP5 DUP5 SLOAD PUSH2 0x92E JUMP JUMPDEST DUP3 SSTORE POP POP POP POP JUMP JUMPDEST PUSH0 SWAP1 JUMP JUMPDEST PUSH2 0x9E3 PUSH2 0x9D7 JUMP JUMPDEST PUSH2 0x9EE DUP2 DUP5 DUP5 PUSH2 0x9B2 JUMP JUMPDEST POP POP POP JUMP JUMPDEST JUMPDEST DUP2 DUP2 LT ISZERO PUSH2 0xA11 JUMPI PUSH2 0xA06 PUSH0 DUP3 PUSH2 0x9DB JUMP JUMPDEST PUSH1 0x1 DUP2 ADD SWAP1 POP PUSH2 0x9F4 JUMP JUMPDEST POP POP JUMP JUMPDEST PUSH1 0x1F DUP3 GT ISZERO PUSH2 0xA56 JUMPI PUSH2 0xA27 DUP2 PUSH2 0x901 JUMP JUMPDEST PUSH2 0xA30 DUP5 PUSH2 0x913 JUMP JUMPDEST DUP2 ADD PUSH1 0x20 DUP6 LT ISZERO PUSH2 0xA3F JUMPI DUP2 SWAP1 POP JUMPDEST PUSH2 0xA53 PUSH2 0xA4B DUP6 PUSH2 0x913 JUMP JUMPDEST DUP4 ADD DUP3 PUSH2 0x9F3 JUMP JUMPDEST POP POP JUMPDEST POP POP POP JUMP JUMPDEST PUSH0 DUP3 DUP3 SHR SWAP1 POP SWAP3 SWAP2 POP POP JUMP JUMPDEST PUSH0 PUSH2 0xA76 PUSH0 NOT DUP5 PUSH1 0x8 MUL PUSH2 0xA5B JUMP JUMPDEST NOT DUP1 DUP4 AND SWAP2 POP POP SWAP3 SWAP2 POP POP JUMP JUMPDEST PUSH0 PUSH2 0xA8E DUP4 DUP4 PUSH2 0xA67 JUMP JUMPDEST SWAP2 POP DUP3 PUSH1 0x2 MUL DUP3 OR SWAP1 POP SWAP3 SWAP2 POP POP JUMP JUMPDEST PUSH2 0xAA7 DUP3 PUSH2 0x529 JUMP JUMPDEST PUSH8 0xFFFFFFFFFFFFFFFF DUP2 GT ISZERO PUSH2 0xAC0 JUMPI PUSH2 0xABF PUSH2 0x5F5 JUMP JUMPDEST JUMPDEST PUSH2 0xACA DUP3 SLOAD PUSH2 0x78D JUMP JUMPDEST PUSH2 0xAD5 DUP3 DUP3 DUP6 PUSH2 0xA15 JUMP JUMPDEST PUSH0 PUSH1 0x20 SWAP1 POP PUSH1 0x1F DUP4 GT PUSH1 0x1 DUP2 EQ PUSH2 0xB06 JUMPI PUSH0 DUP5 ISZERO PUSH2 0xAF4 JUMPI DUP3 DUP8 ADD MLOAD SWAP1 POP JUMPDEST PUSH2 0xAFE DUP6 DUP3 PUSH2 0xA83 JUMP JUMPDEST DUP7 SSTORE POP PUSH2 0xB65 JUMP JUMPDEST PUSH1 0x1F NOT DUP5 AND PUSH2 0xB14 DUP7 PUSH2 0x901 JUMP JUMPDEST PUSH0 JUMPDEST DUP3 DUP2 LT ISZERO PUSH2 0xB3B JUMPI DUP5 DUP10 ADD MLOAD DUP3 SSTORE PUSH1 0x1 DUP3 ADD SWAP2 POP PUSH1 0x20 DUP6 ADD SWAP5 POP PUSH1 0x20 DUP2 ADD SWAP1 POP PUSH2 0xB16 JUMP JUMPDEST DUP7 DUP4 LT ISZERO PUSH2 0xB58 JUMPI DUP5 DUP10 ADD MLOAD PUSH2 0xB54 PUSH1 0x1F DUP10 AND DUP3 PUSH2 0xA67 JUMP JUMPDEST DUP4 SSTORE POP JUMPDEST PUSH1 0x1 PUSH1 0x2 DUP9 MUL ADD DUP9 SSTORE POP POP POP JUMPDEST POP POP POP POP POP POP JUMP INVALID LOG2 PUSH5 0x6970667358 0x22 SLT KECCAK256 SWAP3 INVALID SLOAD PUSH7 0x1BB78230527EF8 SAR 0xB9 CALL SHR PUSH30 0x568120C9F708059055BB09A9E77D8A8E64736F6C634300081A0033000000 "
		},
		"gasEstimates": {
			"creation": {
				"codeDepositCost": "595800",
				"executionCost": "630",
				"totalCost": "596430"
			},
			"external": {
				"addingPost(address)": "27245",
				"isUserRegistered(address)": "2960",
				"register(string)": "infinite",
				"users(address)": "infinite"
			}
		},
		"methodIdentifiers": {
			"addingPost(address)": "25f3d220",
			"isUserRegistered(address)": "163f7522",
			"register(string)": "f2c298be",
			"users(address)": "a87430ba"
		}
	},
	"abi": [
		{
			"inputs": [
				{
					"internalType": "address",
					"name": "_user",
					"type": "address"
				}
			],
			"name": "addingPost",
			"outputs": [],
			"stateMutability": "nonpayable",
			"type": "function"
		},
		{
			"inputs": [
				{
					"internalType": "address",
					"name": "_user",
					"type": "address"
				}
			],
			"name": "isUserRegistered",
			"outputs": [
				{
					"internalType": "bool",
					"name": "",
					"type": "bool"
				}
			],
			"stateMutability": "view",
			"type": "function"
		},
		{
			"inputs": [
				{
					"internalType": "string",
					"name": "_username",
					"type": "string"
				}
			],
			"name": "register",
			"outputs": [],
			"stateMutability": "nonpayable",
			"type": "function"
		},
		{
			"inputs": [
				{
					"internalType": "address",
					"name": "",
					"type": "address"
				}
			],
			"name": "users",
			"outputs": [
				{
					"internalType": "address",
					"name": "userAddress",
					"type": "address"
				},
				{
					"internalType": "string",
					"name": "username",
					"type": "string"
				},
				{
					"internalType": "uint256",
					"name": "postCounts",
					"type": "uint256"
				}
			],
			"stateMutability": "view",
			"type": "function"
		}
	]
}